:02000004080AE8
:1000000000000A08B8310A080000060006000501D1
:0800100004027C050000000061
:04001800482D0A085D
:10001C0009480A4908B5884205D0094A824202D0EB
:10002C00121A02F02BFE0748074A0021121A02F09E
:10003C0030FE064808BD00BF0000002024310A082D
:10004C006C0000206C000020A0060020A006002000
:10005C0070B501F097FE074B074C1E46E41AA40836
:10006C000025A54204D056F8253098470135F8E70D
:10007C0070BD00BFD8300A0818310A0800F014B857
:10008C0008B500F055F8BDE8084001F03DBE00F0A1
:10009C00D1BD00F0D7BD0078B0FA80F040097047B0
:1000AC0001230370704700001FB501F039FD4FF4B8
:1000BC00E13101F01BFD01F033FD184901F06BFA41
:1000CC0001F08CFE57230146154A164800F004FA3D
:1000DC0028B901F025FD144901F05DFAFEE701F0A5
:1000EC001FFD124901F057FA40F29B124FF4C871F0
:1000FC004FF480538DE80E000A48032304221F217D
:10010C0000F0A9FA0A21074800F015FA0548002169
:10011C0005B05DF804EB00F018BA00BF5C2D0A08BE
:10012C00801A0600780000206C2D0A08A02D0A0801
:10013C002DE9F047544888B000F0B6F9064600F0B7
:10014C0077FB524F524D002865D000F0EDFBDFF8E5
:10015C007081D8F80030C41A00F0E6FBC8F8000033
:10016C00204602F039F900224A4B02F0C5FA024649
:10017C000B460020484902F0BFFA02F08BFC4749BD
:10018C003860814602F024FD08B34549484602F028
:10019C003DFDE0B1484602F043FDDFF828A1DFF851
:1001AC0028819AF8004008F8040098F8002098F884
:1001BC0001300134134498F8022004F00304134472
:1001CC0098F803208AF8004013449B102B602A688F
:1001DC00344904A801F078FB334B049A1B7833495B
:1001EC008DF8003002A83C2300F0E2FE039C7CB1A9
:1001FC006368013B63605BB9236820469B68984742
:10020C00A368013BA3601BB923682046DB689847B1
:10021C0004A801F0FFFA01F083FC254901F0A8F9CC
:10022C0001F07EFC0A22314601F0EBF901F078FC7A
:10023C00204901F09DF901F073FC0446386802F086
:10024C00DDF802230246009320460B4601F0ACFA7F
:10025C0001F066FC184901F08BF901F061FC0A22EF
:10026C00296801F0F0F94CF24F339E4204DC01F0A6
:10027C0057FC124901F07CF901F052FC01F07FF9B6
:10028C0008B0BDE8F08700BF78000020BC0000205B
:10029C007000002000408F4000004E4000007F4363
:1002AC000000A041DC2D0A0874000020DF2D0A0894
:1002BC00F02D0A08F42D0A08FB2D0A08062E0A0850
:1002CC00B4000020C0000020B800002008B5054B89
:1002DC0001221A7000F030FBBDE80840024800F023
:1002EC0005B800BF7400002078000020704770B57E
:1002FC00044616460D46006801F035F82068314674
:10030C0003689B6898470021206801F033F80122AC
:10031C002946206801F01FF8206803681B6998477C
:10032C0020B1206803685B699847C0B270BD042295
:10033C000179FFF7DCBF06220179FFF7D8BF2DE961
:10034C00F7430446FFF7F7FF05462046FFF7EFFF9C
:10035C00854200F08E80471B4FF05701206848BF44
:10036C002037667901F003F82068072103687E4383
:10037C009B689847206801F001F806EB46064FF0A1
:10038C0020084FF00009002E74DD202EC9BF6579BE
:10039C00354605EB450598FBF5F3C8BF5D43572182
:1003AC002A462068761B00F0D9FF002DEBDD94F86F
:1003BC0038302068013303F0030384F838300368C5
:1003CC008DF807905B6998478DF8060020680368E4
:1003DC005B6998478DF80500206803685B6998474E
:1003EC008DF8040094F83830019A0233C2F31102EC
:1003FC0044F823206379012B19D9206803685B69C1
:10040C0098478DF80600206803685B6998478DF85B
:10041C000500206803685B6998478DF8040094F820
:10042C003830019A0633C2F3110244F82320637961
:10043C00022B19D9206803685B6998478DF8060070
:10044C00206803685B6998478DF80500206803688D
:10045C005B6998478DF8040094F83830019A0A3398
:10046C00C2F3110244F823206379A3EB83031D44E8
:10047C009BE70027B8B203B0BDE8F08370B5054622
:10048C000E4600F051FA044600F04EFA001BB04242
:10049C0008D82846FFF753FF012804D0012000F0AC
:1004AC00F9FBF1E7002070BD10B5FA210446FFF707
:1004BC00E5FF20B194F83830063354F8230010BD12
:1004CC00FF220179FFF713BF10B5FE220179044614
:1004DC00FFF70DFFA07110BD70B5044616461D4602
:1004EC000846216000F028FF3146206800F020FF0C
:1004FC0025712046FFF7E4FF152804D12046FFF7AD
:10050C00E3FF012070BD002070BD70B50446164697
:10051C001D46006800F027FF2068314603689B6881
:10052C0098472068294603689A6890472068BDE878
:10053C00704000F023BF0B460C220179FFF7E5BF9A
:10054C000B460D220179FFF7E0BF0B460E22017915
:10055C00FFF7DBBF0B4610220179FFF7D6BF10B5B2
:10056C000446017900230422FFF7CFFF21792046AE
:10057C0000230522FFF7C9FF21792046BDE8104072
:10058C0000230622FFF7C1BF2DE9F0410E461546A8
:10059C000A46017904461F46FFF7A9FE284047EAA0
:1005AC000003324621792046BDE8F041FFF7ADBF8C
:1005BC0038B5BF22402309210446FFF7E5FF00F0C0
:1005CC00B3F9054600F0B0F9401B63280AD809229C
:1005DC0021792046FFF78BFE430603D5012000F05E
:1005EC0059FBEFE738BD0B46F8220921FFF7CCBFCA
:1005FC000B469F220A21FFF7C7BF0B46E3220A21B5
:10060C00FFF7C2BF0B46FC220A21FFF7BDBF0B460A
:10061C001F220821FFF7B8BF1023EF220821FFF794
:10062C00B3BF01391346032914D8DFE801F00204E3
:10063C000A0CF82203E01B0103F0F0038F221121B6
:10064C0006E0F82203E01B0103F0F0038F221221D5
:10065C00FFF79ABF70472DE9F047164608AD0446E0
:10066C0095E8200688461F46FFF7A2FF012E01D110
:10067C00002112E0022E01D120210EE0042E01D126
:10068C0040210AE0082E01D1602106E0102E01D194
:10069C00802102E0202EF3D1A0212046FFF7B7FFE6
:1006AC002046FFF7B9FF032F01D1072103E0022FEA
:1006BC000CBF032102212046FFF795FFBAF5805F9E
:1006CC00677101DA00210BE0BAF5005F01DA202135
:1006DC0006E0BAF5804F01DA402101E0F2D1602149
:1006EC002046FFF785FF632D01DC00211EE0C72D9E
:1006FC0001DC04211AE0B5F5C87F01DA082115E008
:10070C00B5F5487F01DA0C2110E0B5F57A7F01DAF6
:10071C0010210BE0B5F5C86F01DA142106E0B5F530
:10072C00486F01DA182101E0DFD11C212046FFF7C8
:10073C0064FFB9F1750F01DC00210EE0B9F1D60FA1
:10074C0001DC012109E0B9F5CD7F01DC022104E0D7
:10075C0040F29B139945EFD103212046FFF752FF3E
:10076C0041462046FFF7E7FE41462046FFF7E8FEEC
:10077C0041462046FFF7E9FE41462046FFF7EAFED8
:10078C00012211462046FFF74CFF012F0CD92023E4
:10079C008F2211212046FFF7F7FE022F04D00322EF
:1007AC0011462046FFF73DFF2046BDE8F047FFF716
:1007BC00D6BE00F0C1B80368C3EBC13103EB211303
:1007CC00036043F3CF3070471649F0B50E46164D13
:1007DC00164F2B78A3F10B0202F01F0221F8130025
:1007EC0031F91200A3F1160E000300220EEB0201E8
:1007FC009C1A01F01F0104F01F0436F811C036F8E2
:10080C00141037F912406144013209B20B2A04FB6F
:10081C000100EBD1013303F01F032B7040F3CF30F9
:10082C00F0BD00BFD200002012010020122E0A08D9
:10083C00F8B5294D82B2294C2B88114628482380C3
:10084C00FFF7B9FF274B1880101A00B2FFF7BCFF57
:10085C00B4F900202880002A234C24491ADA030416
:10086C0018D4234E234DB6F90030234F2B80234D43
:10087C00B5F900503D805B1B40F2D235153B01278A
:10088C00AB4227804FF000070F8037808CBF0023CE
:10089C00012300E00023002A07DD002805DC0126E7
:1008AC000E80164E002525803580B4F9004090420C
:1008BC00D4BF002404F001040CB10D4C2080B1F91C
:1008CC0000109042ACBF002201F001020AB10B4AA9
:1008DC0010801846F8BD00BFD0000020CE000020CC
:1008EC00C8000020C200002014010020C400002019
:1008FC00160100200200002000000020CC00002087
:10090C0000F01AB800F018B808B5024B1B681B6B46
:10091C00019308BDD001060808B5024B1B685B6843
:10092C00019308BD9C01060808B5024B1B685B6966
:10093C00019308BD9C01060808B5024B1B681B6897
:10094C00019308BDB001060808B5024B1B681B6C6F
:10095C00019308BDAC01060808B5024B1B68DB6CA3
:10096C00019308BDAC01060808B5024B1B685B6D12
:10097C00019308BDAC01060808B5024B1B689B6DC2
:10098C00019308BDAC01060808B5024B1B68DB6D72
:10099C00019308BDAC01060808B5024B1B681B6E21
:1009AC00019308BDAC01060808B5024B1B685B6ED1
:1009BC00019308BDAC01060808B5024B1B689B6E81
:1009CC00019308BDAC01060808B5024B1B68DB6E31
:1009DC00019308BDAC01060808B5024B1B681B6FE0
:1009EC00019308BDAC01060808B5034B1B68D3F88E
:1009FC008030019308BD0000AC01060808B5024B1D
:100A0C001B68DB69019308BDB401060808B5024BED
:100A1C001B689B69019308BDC401060808B5024B0D
:100A2C001B685B6A019308BDC401060808B5024B3C
:100A3C001B689B6A019308BDC401060808B5024BEC
:100A4C001B68DB6A019308BDC401060808B5024B9C
:100A5C001B681B6B019308BDC401060808B5024B4B
:100A6C001B685B6B019308BDC401060808B5024BFB
:100A7C001B681B6C019308BDC401060808B5024B2A
:100A8C001B681B68019308BDD801060808B5024B0A
:100A9C001B685B68019308BDD801060808B5024BBA
:100AAC001B681B69019308BDD801060808B5024BE9
:100ABC001B685B69019308BDD801060808B5024B99
:100ACC001B689B69019308BDD801060808B5024B49
:100ADC001B68DB69019308BDD801060808B5024BF9
:100AEC001B681B6A019308BDD801060808B5024BA8
:100AFC001B689B6C019308BDC001060808B5024B2E
:100B0C001B685B68019308BDA401060808B5024B7D
:100B1C001B685B69019308BDA401060808B5024B6C
:100B2C001B68DB6C019308BDA401060808B5024BD9
:100B3C001B685B6D019308BDA401060808B5034B47
:100B4C001B68D3F89030019308BD0000A40106087F
:100B5C0008B5034B1B68D3F89C30019308BD00000B
:100B6C00A401060808B5024B1B685B69019308BD1C
:100B7C00CC01060808B5024B1B681B6A019308BD23
:100B8C00CC01060808B5024B1B68DB6B019308BD52
:100B9C00CC01060808B5024B1B685B68019308BDC5
:100BAC00C801060808B5024B1B689B68019308BD79
:100BBC00C801060808B5024B1B68DB68019308BD29
:100BCC00C801060808B5024B1B681B69019308BDD8
:100BDC00C801060808B5024B1B685B69019308BD88
:100BEC00C801060808B5024B1B689B69019308BD38
:100BFC00C801060808B5024B1B68DB69019308BDE8
:100C0C00C801060808B5024B1B681B6A019308BD96
:100C1C00C801060808B5024B1B681B6B019308BD85
:100C2C00C801060808B5024B1B685B6B019308BD35
:100C3C00C801060808B5024B1B681B68019308BD68
:100C4C00A001060808B5024B1B685B68019308BD40
:100C5C00A001060808B5024B1B689B68019308BDF0
:100C6C00A001060808B5024B1B685B6A019308BD1E
:100C7C00A001060808B5024B1B68DB6A019308BD8E
:100C8C00A001060808B5024B1B681B6B019308BD3D
:100C9C00A00106080021FFF739BF10B58368044690
:100CAC000BB901F0FCF8C3689847A3681BB1032289
:100CBC002146204698472046BDE81040102101F0FF
:100CCC00ECB870470020704710B50446102101F0B5
:100CDC00E4F8204610BD08B508B1FFF7F5FF08BDD4
:100CEC0010B58368044613B1032201469847204689
:100CFC0010BD002202604FF69C72828010B5B1F9D3
:100D0C00044084808A8002680C6804600A6010BD0C
:100D1C0010B504460068FFF795FF204610BD38B5A6
:100D2C00C468F4B12378022B03D104F10C00FFF753
:100D3C00EFFF656835B12846FFF7D2FF1021284632
:100D4C0001F0ABF8A56835B12846FFF7C9FF1021B3
:100D5C00284601F0A2F82046BDE83840142101F0E5
:100D6C009CB838BD38B5046805467CB16368013B56
:100D7C0063605BB9236820469B689847A368013B76
:100D8C00A3601BB923682046DB689847284638BD0A
:100D9C0013B5044691E8050000234B600B602060FE
:100DAC00626001A801930093FFF7DCFF204602B0BC
:100DBC0010BD0B68036013B15A6801325A6070475A
:100DCC00F7B50C4606460F4654F8043B02AD45F801
:100DDC00083D214601A8FFF7ECFF29463046FFF7F6
:100DEC00D7FF01A8FFF7BEFF2046FFF7BBFF384631
:100DFC00082101F052F8304603B0F0BD13B50B4694
:100E0C00044603C88DE8030093E8030084E803005C
:100E1C009DE8030083E8030002B010BD38B5002341
:100E2C000446036010200D46FFF731F928B1012369
:100E3C0043608360024BC56003602060204638BD70
:100E4C00342E0A08826810B50AB901F028F8C36874
:100E5C00BDE81040184708B5006800F11001FFF715
:100E6C00F1FF08BD826810B50AB901F018F8C36823
:100E7C00BDE81040184708B5006800F11001FFF7F5
:100E8C00F1FF08BD38B5002383608B6804460D461E
:100E9C002BB102229847EB68E360AB68A360204655
:100EAC0038BD0000F0B589B004686846FFF721FF33
:100EBC004FF0020200238DF80830D4E84F3F002B8E
:100ECC0003D1C4E8412F0029F7D102D08DF80830A6
:100EDC0063E014F10C0503D069462846FFF709FFBF
:100EEC00BFF35F8F01236370BFF35F8F04F10803BF
:100EFC00002053E8006F43E80002002AF9D1BFF349
:100F0C005F8F002E49D0FFF709FE20B129463046ED
:100F1C00FFF798FF3AE0314602A8FFF7B3FFE0680D
:100F2C00B4F9105008B101F0E5FE06901020ADF8B0
:100F3C001C50FFF7ACF80546E8B100278760182075
:100F4C00FFF7A5F8044688B10146876002A8FFF7B1
:100F5C0055FF049BA268A360059B0492E26806A956
:100F6C00E36004F110000592FFF7C3FE0D4B2C60FB
:100F7C00EB600D4BAB6006A8FFF7CAFE02A8FFF7AB
:100F8C00AFFE002229460948FFF7D0FD3046FFF797
:100F9C00A7FE1021304600F080FF6846FFF7B8FE30
:100FAC0009B0F0BD630E0A08D9100A08A70C0A088C
:100FBC002DE9F04F8BB006460F46904699469DF8AA
:100FCC0050A0FFF7CFFD07AD834630BB4FF62E7315
:100FDC00059005A92846ADF81830FFF78AFE1420B5
:100FEC00FFF755F8044658B10223037001234370F0
:100FFC00C0F804B0C0F808B029460C30FFF779FEF1
:10100C003046214640F8044BFFF708FF2846FFF70F
:10101C007FFE05A8FFF77CFE52E000240C23142071
:10102C006C60AC600793FFF732F8014618B104709E
:10103C0044704460846004A80391FFF7EFFE224BD8
:10104C0008200893FFF723F8044628B1039B04A952
:10105C0040F8043BFFF7ADFE00955FFA8AF34A4671
:10106C00414638460994FFF785FD20B9039B5B7810
:10107C0003F0FF0283B1039B04A906A80593FFF7B5
:10108C0098FE05A93046FFF783FE06A8FFF76AFE17
:10109C0004A8FFF767FE13E04FF69C7305A903A89D
:1010AC000592ADF81830FFF7FDFE05A8FFF730FEEE
:1010BC0005A80999FFF784FE06A8FFF753FEDAE7A7
:1010CC0030460BB0BDE8F08F49120A08022AF8B579
:1010DC00044606D0032A17D0012A22D10B680360DC
:1010EC001FE018200E68FEF7D2FF054650B13146BE
:1010FC00FFF7C8FE3069B6F9147008B101F0FAFDBB
:10110C002861AF8225600CE0046854B104F1100032
:10111C00FFF7FEFD2046FFF7E3FD1821204600F007
:10112C00BCFE0020F8BD38B5002383608B680446F4
:10113C000D462BB102229847EB68E360AB68A360C5
:10114C00204638BD022A70B5044606D0032A11D0B9
:10115C00012A18D10B68036015E014200E68FEF705
:10116C0096FF054620B13146FFF7DDFF337C2B742B
:10117C00256008E0046834B12046FFF7B1FD142166
:10118C00204600F08AFE002070BD0000F0B50C4631
:10119C00BFF35F8F87B0002350E8006F40E8003248
:1011AC00002AF9D1BFF35F8F002E3FD01846FFF70E
:1011BC00B5FC074620B121463046FFF753FE2EE022
:1011CC00314601A8FFF7AFFF237810208DF81430BB
:1011DC00FEF75DFF0546D0B187601420FEF757FF80
:1011EC00044678B18760014601A8FFF707FE039B10
:1011FC00A268A360049B0392E268E3609DF814303C
:10120C00049223740A4B2C60EB600A4BAB6001A870
:10121C00FFF766FD002229460748FFF787FC30469A
:10122C00FFF75EFD1021304600F037FE07B0F0BD31
:10123C00830E0A0851110A08A70C0A0830B5044697
:10124C0085B00D4668461146FFF7BAFD7CB124B255
:10125C0028460DB101F04EFD029002A96846ADF88A
:10126C000C40FFF71FFE02A8FFF752FD1DE04FF0E8
:10127C00010200988DF80840D0E84F3FA34203D1FB
:10128C00C0E8412F0029F7D102D08DF808300CE0CE
:10129C0010F10C014FF0010318BF0373BFF35F8F04
:1012AC00043000F8033CFFF771FF01A8FFF75AFD6B
:1012BC0005B030BD7047F8B5064615460C468F187C
:1012CC00BC4206D0336814F8011B9B683046984723
:1012DC00F6E72846F8BD0022007CFFF75DBB002135
:1012EC00007CFFF761BB0021007CFFF765BB002190
:1012FC00007CFFF769BB0021007CFFF76DBB10B5CC
:10130C000446142100F0C9FD204610BD10B504465A
:10131C0008464FF47A73A360044B0021207461607B
:10132C002360FFF761FB204610BD00BF502E0A085A
:10133C000022007CFFF708BB00231A461946007CEC
:10134C00FFF70ABB13B50024007C0094FFF70CFBDD
:10135C00C0B202B010BD0123FFF7F4BF0123D2B21B
:10136C00C9B2FFF7EFBF0022007CFFF705BBC9B283
:10137C00FFF7F9BF0022007CFFF706BB0121FFF746
:10138C00F9BF704710B50446182100F086FD2046C1
:10139C0010BDF8B50F4600F10806051D002416F81F
:1013AC00011D0A22384600F02AF9AE42044407D047
:1013BC00002CF4D02E21384600F0DEF80444EEE781
:1013CC002046F8BD10B50446044B112240F8043BEE
:1013DC00002101F05EFC204610BD00BF782E0A08EB
:1013EC000346074A10B543F8042B01F1100251F8DB
:1013FC00044B914243F8044BF9D10A781A7010BD92
:10140C00782E0A08024A4160026004220275704775
:10141C00782E0A0810B59DF8084044EA032343EAE5
:10142C00024242EA016104234160037510BD0000D1
:10143C0037B5044D05609DF818500095FFF7EAFF8D
:10144C0003B030BD782E0A08014A024B1A6070476F
:10145C00FA2E0A081801002000231A464068FFF7EC
:10146C0099BB002202214068FFF7A4BB0022114661
:10147C004068FFF797BB002211464068FFF7A2BBFC
:10148C0000231A4619464068FFF7A4BB00231A46EE
:10149C0019464068FFF7A6BB002281F001014068A5
:1014AC00FFF7A8BB00224068FFF7B4BB002211462F
:1014BC004068FFF7B7BB002211464068FFF7A2BB9C
:1014CC0070B516468EB0044608A8FFF77BFF1122B4
:1014DC00002103A801F0DDFB304601F026FC0025BD
:1014EC000A4B009581B25B6803AA3046FFF7FEFAFF
:1014FC0020B129462046FFF785FF03E003A92046CB
:10150C00FFF76EFF20460EB070BD00BF9C0500209B
:10151C00024B034A1A6000225A6070471C010020DB
:10152C006C2F0A08F8B506460D468F180024BD42EC
:10153C000CD0336815F8011B9B683046984700287F
:10154C0001DB0444F3E7002C08BF04462046F8BD39
:10155C0070B505460C46084649B101F0E6FB2B6810
:10156C00024621462846BDE87040DB68184770BD2E
:10157C0008B5FFF7EDFF08BD03689B68184738B541
:10158C000D210546FFF7F8FF0A2104462846FFF710
:10159C00F3FF204438BD38B50546FFF7D9FF0446A4
:1015AC002846FFF7ECFF204438BD012A98BF0A22D9
:1015BC0030B50B468BB000218DF824100DF12304AF
:1015CC00B3FBF2F505FB1233DBB2092B94BF3033BE
:1015DC003733DBB2214604F801392B46002DEFD10D
:1015EC00FFF7B6FF0BB030BD10B422B90368C9B217
:1015FC009B6810BC1847D2B210BCFFF7D6BFFFF7E0
:10160C00F3BF2DE9F04107460E4615462AB9BDE851
:10161C00F0410368C9B29B6818470A2A02D1002915
:10162C0001DA04E0D2B2BDE8F041FFF7BEBF2D21D4
:10163C00FFF7A2FF2A46044671423846FFF7B5FF72
:10164C002044BDE8F081FFF7DCBF00002DE9F84332
:10165C0019468046104617461E469DF8205001F04C
:10166C00BBF908B1474912E026F000444FF0FF32B5
:10167C00454B3846214601F0AFF968B94FF0FF32BF
:10168C00414B3846214601F089F928B93F4940467B
:10169C00FFF75EFFBDE8F8834FF060423C4B3846E5
:1016AC00314601F08FF908B13A49F0E74FF060424A
:1016BC00394B3846314601F067F90028F4D1002245
:1016CC0000233846314601F05FF938B12D214046F0
:1016DC00FFF752FF06F10046044600E004462F498E
:1016EC004FF0000900205FFA89F39D4206D90022D1
:1016FC002B4B01F001F809F10109F4E73A463346A6
:10170C0000F01EFD0F46064601F0A4F90A22014620
:10171C0081464046FFF749FF04447DB3484600F03C
:10172C004BFE02460B463046394600F007FD064696
:10173C000F4640461B49FFF70BFF0444184B002291
:10174C003046394600F0AEFE0F46064601F05AF917
:10175C000A22014681464046FFF753FF044448469F
:10176C0000F03AFE02460B463046394600F0E6FCE5
:10177C00013D15F0FF0506460F46DFD12046BDE8BA
:10178C00F88300BF982F0A08FFFFEF7FA02F0A08ED
:10179C00FFFFEF419C2F0A08FFFFEFC10000E03F65
:1017AC00000024406A2D0A089DF800100091FFF7F4
:1017BC004DBF10B50446FFF793FA204610BD00004C
:1017CC00034800238360034A034900F061BB00BF58
:1017DC00240100206C000020BF170A08704710B5C8
:1017EC000446102100F059FB204610BD70B504468C
:1017FC000E46074B0025036040F80C5FFFF784F89A
:10180C0030462671FFF7FAF8A560204670BD00BF80
:10181C00AC2F0A0810B504460068FFF713FA2046EF
:10182C0010BD10B50446006808B1FFF70BFA002391
:10183C002360A360636010BD38B504460D46006894
:10184C000131FFF707FA10B184E82100012038BDFF
:10185C0010B50368044613B143688B4207D2204687
:10186C00FFF7EAFF20B1A3680BB9226813700120BF
:10187C0010BD70B50E46114604461546FFF7E8FF3D
:10188C0018B92046FFF7CDFF09E02A463146A5607E
:10189C00206801F0F3F92268A3680021D154204696
:1018AC0070BD38B500230446036043608360037346
:1018BC000D4639B1084601F038FA29460246204651
:1018CC00FFF7D7FF204638BD0EB4FFB509AC54F86E
:1018DC00047B054623463A46052102A80194FFF7EE
:1018EC00C1F906460B492846FFF7DBFF314628466F
:1018FC00FFF7AEFF286830B123463A46711C0194BD
:10190C00FFF7B0F9A860284604B0BDE8F04003B07A
:10191C00704700BF2B2F0A084FF6FF72034B0020B5
:10192C00187058809A80FFF7E9B800BF3401002086
:10193C00024B1A68024B1A60704700BF040000206B
:10194C003C01002070474174704708B5007CFFF7DC
:10195C008DF820EAE07008BD08B5007CFFF766F84A
:10196C0020EAE07008BD08B5007CFFF76FF830EA9C
:10197C00200028BF4FF0FF3008BD08B5007CFFF7F2
:10198C005DF830EA200028BF4FF0FF3008BD007C26
:10199C00FFF764B810B50446142100F07EFA204617
:1019AC0010BD70B5457C04460E4625B9007CFFF78A
:1019BC005DF8002805DD3146207CBDE87040FFF75E
:1019CC002DB8284670BD000010B5044608461146D7
:1019DC00002262604FF47A72A260054A2074226081
:1019EC00012262741A46FFF711F8204610BD00BFA1
:1019FC00E82F0A0838B50C4D296811F0010411D1F3
:101A0C002846FEF748FB68B1084A2146084B0948AE
:101A1C00FFF7DAFF2846FEF743FB074A074905485C
:101A2C0000F036FA034838BDD8010020DC01002054
:101A3C0054010020400100206C00002051190A08BC
:101A4C0041747047704708B50021007CFFF736F8E9
:101A5C0030EA200028BF4FF0FF3008BD08B5012147
:101A6C00007CFFF72BF830EA200028BF4FF0FF3046
:101A7C0008BD08B5007CFFF719F820EAE07008BD36
:101A8C0008B5007CFFF70AF820EAE07008BD007C7E
:101A9C00FFF724B810B50446142100F0FEF92046D7
:101AAC0010BD38B50446007C0D46FEF7FFFF00283C
:101ABC0001DC607C28B12946207CFFF707F820EA7E
:101ACC00E07038BD10B50446002363604FF47A73A0
:101ADC00A360054B084623600123217463741146EF
:101AEC00FEF7CCFF204610BD18300A080022007CFF
:101AFC00FEF7CCBF10B504461422002101F0C9F842
:101B0C00054B20466360054BE36040F201132381D3
:101B1C008123238210BD00BFE50200206402002057
:101B2C0030B50E4D87B001A8FFF7E4FF296811F01E
:101B3C00010410D12846FEF7AEFA60B101AA214685
:101B4C000748FFF7BFFF2846FEF7AAFA054A0649E1
:101B5C00034800F09DF9024807B030BD6002002038
:101B6C00E80300206C000020511A0A0810B5044646
:101B7C001422002101F08DF8054B20466360054BC3
:101B8C00E36040F2011323818123238210BD00BF47
:101B9C00980400200004002010B50E4C86B001A85B
:101BAC00FFF7E4FF2368DB0710D42046FEF773FA37
:101BBC0060B101AA01210848FFF784FF2046FEF717
:101BCC006FFA064A0649044800F062F9024806B06A
:101BDC0010BD00BFFC030020840400206C0000201A
:101BEC00511A0A08002211464068FEF7EBBFF0B507
:101BFC00164689B011220F460446002103A801F0B5
:101C0C0048F8304601F091F80025009581B27B68C8
:101C1C0003AA3046FEF76AFF20B129462046FFF79B
:101C2C00F1FB03E003A92046FFF7DAFB204609B0DD
:101C3C00F0BD002211464068FEF7E4BF00221146B9
:101C4C004068FEF7EFBF00224068FEF7E3BF0022BA
:101C5C0081F001014068FEF7CDBF00231A461946FA
:101C6C004068FEF7BFBF00231A4619464068FEF7CE
:101C7C00B1BF002211464068FEF794BF002202213A
:101C8C004068FEF797BF00231A464068FEF782BFF4
:101C9C00024B04225A60024A1A6070479C050020CD
:101CAC0048300A0808B5144B33B1FFF739FF036805
:101CBC001B699847002816DC104B33B1FFF79AFECE
:101CCC0003681B699847002810DC0D4B0BB1AFF370
:101CDC0000800C4B7BB1FFF75FFF03681B699847D3
:101CEC00002806DC08BDAFF30080E5E7AFF3008009
:101CFC00EBE7AFF3008008BD00000000000000001F
:101D0C00000000000000000008B5FFF7CBFFFEF755
:101D1C000BFE014B186008BDAC0500200248034ABD
:101D2C000349121A00F0AABF0040024004400240CE
:101D3C0020310A0807B5002300931A466FF077018B
:101D4C00FEF706FF03B05DF804FB000007B54388FF
:101D5C000A2B08D0502B09D1094B1B683BB103B09F
:101D6C005DF804EB1847FFF7E5FF06E0002300934E
:101D7C001A466FF07701FEF7EBFE03B05DF804FB3B
:101D8C00A405002038B5104C104D2368AB42104B05
:101D9C000CBF012200221A7002D0FFF7BFFF256092
:101DAC00FEF7BAFD044600F07DFF0A4B13B1204646
:101DBC00AFF3008000210748FEF7E4FEBDE8384091
:101DCC0000210548FEF7BABE004002401E1C279AAF
:101DDC00A805002000000000591D0A0838B50B4D5D
:101DEC00296811F001040FD12846FEF754F958B1B7
:101DFC0021460748FFF78AFA2846FEF751F9054AAB
:101E0C000549034800F044F8014838BDB0050020EE
:101E1C00B40500206C000020C1120A0813B5084C50
:101E2C0000231A46194600932046FFF701FB204673
:101E3C00044A054902B0BDE8104000F029B800BFC3
:101E4C00C80500206C0000208F130A0870B50C4CDC
:101E5C000C4E0D4D00212046FFF7C8FC20460B4CC4
:101E6C003246294600F014F801212046FFF7BEFC4B
:101E7C00324629462046BDE8704000F009B800BF44
:101E8C00E00500206C000020E9170A08F00500208E
:101E9C000B460146184600F0E3BEFEF7FAB808B54B
:101EAC00FEF7E8FE244B1A68D0075CBF01221A60CB
:101EBC00224B1A68D1075CBF01221A60204B1A68AA
:101ECC00D2075CBF01221A601E4B1A68D0075CBF98
:101EDC0001221A601C4B1A68D1075CBF01221A60E0
:101EEC001A4B1A68D2075CBF01221A60184B1A6889
:101EFC00D0075CBF01221A60164B1A68D1075CBF71
:101F0C0001221A60144B1A68D2075CBF01221A60B6
:101F1C00124B1A68D0075CBF01221A60104B1A686A
:101F2C00D1075CBF01221A600E4B1A68D2075CBF46
:101F3C0001221A60704700BF2C06002028060020E2
:101F4C0024060020200600201C0600201806002075
:101F5C0014060020100600200C06002008060020A5
:101F6C000406002000060020184B1A68D1075CBF3D
:101F7C0001221A60164B1A68D2075CBF01221A6044
:101F8C00144B1A68D0075CBF01221A60124B1A68F6
:101F9C00D1075CBF01221A60104B1A68D2075CBFD4
:101FAC0001221A600E4B1A68D0075CBF01221A601E
:101FBC000C4B1A68D1075CBF01221A600A4B1A68D5
:101FCC00D2075CBF01221A60704700BF4C0600208C
:101FDC004806002044060020400600203C06002055
:101FEC00380600203406002030060020184B1A68F2
:101FFC00D1075CBF01221A60164B1A68D2075CBF6E
:10200C0001221A60144B1A68D0075CBF01221A60B7
:10201C00124B1A68D1075CBF01221A60104B1A6868
:10202C00D2075CBF01221A600E4B1A68D0075CBF46
:10203C0001221A600C4B1A68D1075CBF01221A608E
:10204C000A4B1A68D2075CBF01221A60704700BFA6
:10205C006C06002068060020640600206006002044
:10206C005C06002058060020540600205006002074
:10207C00244B1A68D0075CBF01221A60224B1A68E5
:10208C00D1075CBF01221A60204B1A68D2075CBFD3
:10209C0001221A601E4B1A68D0075CBF01221A601D
:1020AC001C4B1A68D1075CBF01221A601A4B1A68C4
:1020BC00D2075CBF01221A60184B1A68D0075CBFAC
:1020CC0001221A60164B1A68D1075CBF01221A60F4
:1020DC00144B1A68D2075CBF01221A60124B1A68A3
:1020EC00D0075CBF01221A60104B1A68D1075CBF85
:1020FC0001221A600E4B1A68D2075CBF01221A60CB
:10210C00704700BF9C060020980600209406002013
:10211C00900600208C0600208806002084060020F3
:10212C00800600207C060020780600207406002023
:10213C007006002081F0004102E000BF83F00043F4
:10214C0030B54FEA41044FEA430594EA050F08BF46
:10215C0090EA020F1FBF54EA000C55EA020C7FEA0A
:10216C00645C7FEA655C00F0E2804FEA5454D4EB87
:10217C005555B8BF6D420CDD2C4480EA020281EA51
:10218C00030382EA000083EA010180EA020281EA89
:10219C000303362D88BF30BD11F0004F4FEA0131DB
:1021AC004FF4801C4CEA113102D0404261EB4101EA
:1021BC0013F0004F4FEA03334CEA133302D0524270
:1021CC0063EB430394EA050F00F0A780A4F101042C
:1021DC00D5F1200E0DDB02FA0EFC22FA05F2801866
:1021EC0041F1000103FA0EF2801843FA05F359414C
:1021FC000EE0A5F120050EF1200E012A03FA0EFCCB
:10220C0028BF4CF0020C43FA05F3C01851EBE371F4
:10221C0001F0004507D54FF0000EDCF1000C7EEB11
:10222C0000006EEB0101B1F5801F1BD3B1F5001F4F
:10223C000CD349085FEA30004FEA3C0C04F101046E
:10224C004FEA445212F5800F80F09A80BCF1004F97
:10225C0008BF5FEA500C50F1000041EB045141EA19
:10226C00050130BD5FEA4C0C404141EB010111F41A
:10227C00801FA4F10104E9D191F0000F04BF0146C5
:10228C000020B1FA81F308BF2033A3F10B03B3F1A3
:10229C0020020CDA0C3208DD02F1140CC2F10C0233
:1022AC0001FA0CF021FA02F10CE002F11402D8BF91
:1022BC00C2F1200C01FA02F120FA0CFCDCBF41EA5D
:1022CC000C019040E41AA2BF01EB0451294330BD2C
:1022DC006FEA04041F3C1CDA0C340EDC04F1140409
:1022EC00C4F1200220FA04F001FA02F340EA0300E0
:1022FC0021FA04F345EA030130BDC4F10C04C4F126
:10230C00200220FA02F001FA04F340EA0300294605
:10231C0030BD21FA04F0294630BD94F0000F83F44F
:10232C00801306BF81F480110134013D4EE77FEA32
:10233C00645C18BF7FEA655C29D094EA050F08BF7E
:10234C0090EA020F05D054EA000C04BF194610465F
:10235C0030BD91EA030F1EBF0021002030BD5FEAA3
:10236C00545C05D14000494128BF41F0004130BDCB
:10237C0014F580043CBF01F5801130BD01F000451F
:10238C0045F0FE4141F470014FF0000030BD7FEA92
:10239C00645C1ABF194610467FEA655C1CBF0B468D
:1023AC00024650EA013406BF52EA033591EA030FA4
:1023BC0041F4002130BD00BF90F0000F04BF00219C
:1023CC00704730B54FF4806404F132044FF00005CF
:1023DC004FF0000150E700BF90F0000F04BF002148
:1023EC00704730B54FF4806404F1320410F00045AE
:1023FC0048BF40424FF000013EE700BF42004FEAA9
:10240C00E2014FEA31014FEA02701FBF12F07F4325
:10241C0093F07F4F81F06051704792F0000F14BF22
:10242C0093F07F4F704730B54FF4607401F0004566
:10243C0021F0004120E700BF50EA010208BF7047BD
:10244C0030B54FF000050AE050EA010208BF7047B2
:10245C0030B511F0004502D5404261EB41014FF41B
:10246C00806404F132045FEA915C3FF4DCAE4FF01F
:10247C0003025FEADC0C18BF03325FEADC0C18BF06
:10248C00033202EBDC02C2F1200300FA03FC20FA57
:10249C0002F001FA03FE40EA0E0021FA02F11444A4
:1024AC00C1E600BF70B54FF0FF0C4CF4E06C1CEAB9
:1024BC0011541DBF1CEA135594EA0C0F95EA0C0F2E
:1024CC0000F0DEF82C4481EA030621EA4C5123EAA1
:1024DC004C5350EA013518BF52EA033541F48011D0
:1024EC0043F4801338D0A0FB02CE4FF00005E1FB83
:1024FC0002E506F00042E0FB03E54FF00006E1FBCD
:10250C0003569CF0000F18BF4EF0010EA4F1FF040F
:10251C00B6F5007F64F5407404D25FEA4E0E6D414F
:10252C0046EB060642EAC62141EA55514FEAC52060
:10253C0040EA5E504FEACE2EB4F1FD0C88BFBCF5DC
:10254C00E06F1ED8BEF1004F08BF5FEA500E50F18D
:10255C00000041EB045170BD06F0004646EA010153
:10256C0040EA020081EA0301B4EB5C04C2BFD4EB85
:10257C000C0541EA045170BD41F480114FF0000E7E
:10258C00013C00F3AB8014F1360FDEBF002001F0EC
:10259C00004170BDC4F10004203C35DA0C341BDC66
:1025AC0004F11404C4F1200500FA05F320FA04F038
:1025BC0001FA05F240EA020001F0004221F000416C
:1025CC0010EBD37021FA04F642EB06015EEA430EDF
:1025DC0008BF20EAD37070BDC4F10C04C4F120050F
:1025EC0000FA04F320FA05F001FA04F240EA0200C2
:1025FC0001F0004110EBD37041F100015EEA430E93
:10260C0008BF20EAD37070BDC4F1200500FA05F2B2
:10261C004EEA020E20FA04F301FA05F243EA020331
:10262C0021FA04F001F0004121FA04F220EA020040
:10263C0000EBD3705EEA430E08BF20EAD37070BD86
:10264C0094F0000F0FD101F00046400041EB010166
:10265C0011F4801F08BF013CF7D041EA060195F048
:10266C00000F18BF704703F00046520043EB030302
:10267C0013F4801F08BF013DF7D043EA06037047EF
:10268C0094EA0C0F0CEA135518BF95EA0C0F0CD0FA
:10269C0050EA410618BF52EA4306D1D181EA030140
:1026AC0001F000414FF0000070BD50EA410606BF3A
:1026BC001046194652EA430619D094EA0C0F02D17F
:1026CC0050EA013613D195EA0C0F05D152EA0336C4
:1026DC001CBF104619460AD181EA030101F00041E2
:1026EC0041F0FE4141F470014FF0000070BD41F02B
:1026FC00FE4141F4780170BD70B54FF0FF0C4CF405
:10270C00E06C1CEA11541DBF1CEA135594EA0C0F23
:10271C0095EA0C0F00F0A7F8A4EB050481EA030E70
:10272C0052EA03354FEA013100F088804FEA033357
:10273C004FF0805545EA131343EA12634FEA022225
:10274C0045EA111545EA10654FEA00260EF00041E6
:10275C009D4208BF964244F1FD0404F5407402D238
:10276C005B084FEA3202B61A65EB03055B084FEAC9
:10277C0032024FF480104FF4002CB6EB020E75EBC6
:10278C00030E22BFB61A754640EA0C005B084FEAEE
:10279C003202B6EB020E75EB030E22BFB61A75466B
:1027AC0040EA5C005B084FEA3202B6EB020E75EBB6
:1027BC00030E22BFB61A754640EA9C005B084FEA2E
:1027CC003202B6EB020E75EB030E22BFB61A75463B
:1027DC0040EADC0055EA060E18D04FEA051545EA2A
:1027EC0016754FEA06164FEAC30343EA52734FEAD3
:1027FC00C2025FEA1C1CC0D111F4801F0BD141EA4C
:10280C0000014FF000004FF0004CB6E711F4801FB0
:10281C0004BF01430020B4F1FD0C88BFBCF5E06F90
:10282C003FF6AFAEB5EB030C04BFB6EB020C5FEAA0
:10283C00500C50F1000041EB045170BD0EF0004EF5
:10284C004EEA113114EB5C04C2BFD4EB0C0541EA27
:10285C00045170BD41F480114FF0000E013C90E624
:10286C0045EA060E8DE60CEA135594EA0C0F08BFE8
:10287C0095EA0C0F3FF43BAF94EA0C0F0AD150EAE7
:10288C0001347FF434AF95EA0C0F7FF425AF10467A
:10289C0019462CE795EA0C0F06D152EA03353FF4A2
:1028AC00FDAE1046194622E750EA410618BF52EA1F
:1028BC0043067FF4C5AE50EA41047FF40DAF52EAF3
:1028CC0043057FF4EBAE12E74FF0FF3C06E000BF90
:1028DC004FF0010C02E000BF4FF0010C4DF804CD9D
:1028EC004FEA410C7FEA6C5C4FEA430C18BF7FEA5D
:1028FC006C5C1BD001B050EA410C0CBF52EA430C8B
:10290C0091EA030F02BF90EA020F0020704710F10A
:10291C00000F91EA030F58BF994208BF90422CBF99
:10292C00D8176FEAE37040F0010070474FEA410C92
:10293C007FEA6C5C02D150EA013C07D14FEA430CB0
:10294C007FEA6C5CD6D152EA033CD3D05DF8040B21
:10295C00704700BF8446104662468C461946634653
:10296C0000E000BF01B5FFF7B7FF002848BF10F12A
:10297C00000F01BD4DF808EDFFF7F4FF0CBF01206F
:10298C0000205DF808FB00BF4DF808EDFFF7EAFFEB
:10299C0034BF012000205DF808FB00BF4DF808EDA6
:1029AC00FFF7E0FF94BF012000205DF808FB00BF9B
:1029BC004DF808EDFFF7CEFF94BF012000205DF825
:1029CC0008FB00BF4DF808EDFFF7C4FF34BF012032
:1029DC0000205DF808FB00BF4FEA410C7FEA6C5CFD
:1029EC0002D150EA013C0AD14FEA430C7FEA6C5CFD
:1029FC0002D152EA033C02D14FF0000070474FF075
:102A0C00010070474FEA410212F5001215D211D5A0
:102A1C006FF47873B3EB625212D94FEAC12343F0CF
:102A2C00004343EA505311F0004F23FA02F018BF51
:102A3C00404270474FF00000704750EA013005D11A
:102A4C0011F0004008BF6FF0004070474FF00000DD
:102A5C00704700BF4A0011D212F5001211D20DD5E9
:102A6C006FF47873B3EB62520ED44FEAC12343F088
:102A7C00004343EA505323FA02F070474FF0000032
:102A8C00704750EA013002D14FF0FF3070474FF0E1
:102A9C00000070474FEA4102B2F1E04324BFB3F5A6
:102AAC00001CDCF1FE5C0DD901F0004C4FEAC002B9
:102ABC004CEA5070B2F1004F40EB830008BF20F09D
:102ACC000100704711F0804F21D113F13872BCBF57
:102ADC0001F00040704741F480114FEA5252C2F1AC
:102AEC001802C2F1200C10FA0CF320FA02F018BFF5
:102AFC0040F001004FEAC1234FEAD32303FA0CFC48
:102B0C0040EA0C0023FA02F34FEA4303CCE77FEAD6
:102B1C00625307D150EA01331EBF4FF0FE4040F420
:102B2C004000704701F0004040F0FE4040F40000CF
:102B3C00704700BF4FF0FF3C06E000BF4FF0010CA8
:102B4C0002E000BF4FF0010C4DF804CD4FEA4002FB
:102B5C004FEA41037FEA226C18BF7FEA236C11D045
:102B6C0001B052EA530C18BF90EA010F58BFB2EBF8
:102B7C00030088BFC81738BF6FEAE17018BF40F078
:102B8C00010070477FEA226C02D15FEA402C05D12C
:102B9C007FEA236CE4D15FEA412CE1D05DF8040BB1
:102BAC00704700BF844608466146FFE70FB5FFF744
:102BBC00C9FF002848BF10F1000F0FBD4DF808EDFC
:102BCC00FFF7F4FF0CBF012000205DF808FB00BFED
:102BDC004DF808EDFFF7EAFF34BF012000205DF847
:102BEC0008FB00BF4DF808EDFFF7E0FF94BF012094
:102BFC0000205DF808FB00BF4DF808EDFFF7D2FF91
:102C0C0094BF012000205DF808FB00BF4DF808EDD3
:102C1C00FFF7C8FF34BF012000205DF808FB00BFA0
:102C2C0042000ED2B2F1FE4F0BD34FF09E03B3EB2A
:102C3C00126209D44FEA002343F0004323FA02F056
:102C4C0070474FF00000704712F1610F01D1420242
:102C5C0002D14FF0FF3070474FF00000704700BFBB
:102C6C0010B5054C13462CB10A4601460220AFF3B1
:102C7C00008010BD204610BD0000000010B5431EA2
:102C8C000A44914204D011F8014B03F8014FF8E7C4
:102C9C0010BD03460244934202D003F8011BFAE72D
:102CAC007047000038B5124B05461C68A36BD3B9AE
:102CBC001820FDF7BFFF43F20E33A06303804AF6E2
:102CCC00CD33438041F2342383804EF26D63C38055
:102CDC004DF6EC630381052343810B238381012291
:102CEC000023C0E90423A36B00221D615A6138BD87
:102CFC0068000020024B0146186800F003B800BFC2
:102D0C006800002070B5064608460C4600F00DF829
:102D1C00451C29463046FDF7B5FF064618B12A4634
:102D2C002146FFF7ABFF304670BD034613F8012B6D
:102D3C00002AFBD1181A0138704700001D000A0840
:102D4C005D000A0889000A088D000A0800000000CE
:102D5C00496E697469616C697A696E672E2E2E00F2
:102D6C004D4158333031303520776173206E6F749C
:102D7C0020666F756E642E20506C656173652063E0
:102D8C006865636B20776972696E672F706F776502
:102D9C00722E2000506C61636520796F757220690A
:102DAC006E6465782066696E676572206F6E20743C
:102DBC0068652073656E736F722077697468207311
:102DCC0074656164792070726573737572652E0019
:102DDC0025640077756262616C756262616475620C
:102DEC006475620049523D002C2042504D3D002C30
:102DFC00204176672042504D3D00204E6F20666981
:102E0C006E6765723F00AC00410143029F035005A1
:102E1C0042075609640B3F0DB80EAC0F00100000B2
:102E2C000000000000000000CF0C0A08D50C0A08B6
:102E3C002B0D0A08E30C0A08D10C0A08000000004C
:102E4C0000000000C1120A080B130A08E3120A085A
:102E5C00C3120A08EB120A08F3120A08FB120A083A
:102E6C0003130A0800000000000000009F130A086A
:102E7C008F130A0891130A08626175640053657216
:102E8C0069616C0055534253657269616C31007411
:102E9C0079706500706172616D00636D64006964C6
:102EAC0000686E64007374726D0066696C74006CFB
:102EBC00766C0061646448616E646C657200726566
:102ECC006D6F766548616E646C657200656E756DCC
:102EDC0048616E646C657273004A534F4E53747242
:102EEC0065616D4C6F6748616E646C6572006170F2
:102EFC007000253031307520005D20002C2000281A
:102F0C00293A2000205B00636F6465203D2000257A
:102F1C00690064657461696C73203D20000D0A00C2
:102F2C006C6E00666E00636F646500646574616945
:102F3C006C006E6F6E6500747261636500696E661D
:102F4C006F007761726E006572726F720070616EE5
:102F5C00696300616C6C0000000000000000000060
:102F6C0065140A086F140A0879140A0883140A08ED
:102F7C008D140A0899140A08A5140A08B1140A0831
:102F8C00B9140A08C3140A08CD140A086E616E003D
:102F9C006F766600696E660000000000000000009D
:102FAC00E9170A08EB170A085A00252B3033643A44
:102FBC00253032750025592D256D2D256454254855
:102FCC003A254D3A2553257A0061736374696D6512
:102FDC0000000000000000000000000051190A0869
:102FEC00A1190A08AF190A0831150A0865190A0847
:102FFC0087190A0873190A089B190A0853190A0831
:10300C0057190A080000000000000000511A0A08B5
:10301C00A11A0A08AF1A0A0831150A088D1A0A08EB
:10302C00531A0A08691A0A089B1A0A087F1A0A080E
:10303C004D1A0A080000000000000000931C0A084A
:10304C00891C0A087F1C0A08F11B0A08731C0A0851
:10305C00671C0A085B1C0A08531C0A08491C0A084E
:10306C003F1C0A08FB1B0A080000000000000000BF
:10307C000000000000000000000000000000000044
:10308C000000000000000000000000000000000034
:10309C000000000000000000000000000000000024
:1030AC000000000000000000000000000000000014
:1030BC000000000000000000000000000000000004
:1030CC00000000000000000043000000D9020A08C4
:1030DC00BF070A080D090A0811090A0855140A083D
:1030EC001D150A08CD170A0825190A083D190A08E2
:1030FC009D1C0A08291E0A08591E0A08B11E0A0836
:10310C00751F0A08F91F0A087D200A080000000034
:04311C0000000000AF
:0431200000000000AB
:10312400ECFF1400D52F0A080000000074300A08D0
:1031340094300A08B4300A080000000000000000BF
:103144000000000000000000D4300A080000000065
:10315400000000000000000000000000000000006B
:10316400000000000000000000000000000000005B
:10317400000000000000000000000000000000004B
:0C31840000000000000000000800002017
:10319000FFFFFFFF00000102030405060708090AFC
:1031A0000B0C0D0E0F101112131415161718191AF7
:0831B0001B1C1D1E1F2028003E
:0431B80078563412FF
:04000005080A001CC9
:00000001FF
